:080000000C9447000C94000071
:100008000C9400000C94D0000C9400000C94000098
:100018000C9400000C9400000C9400000C94000058
:100028000C9400000C9400000C9400000C94000048
:100038000C9400000C9400000C9400000C94000038
:100048000C9400000C9474000C9400001027E80332
:1000580064000A0001000010000110000100000007
:10006800000000000000253032643A253032643A3E
:1000780025303264000080C00800040066000200D9
:1000880060017E000000F894EE27ECBBF1E0FBBFB6
:10009800EBBFE5BF8DE0A2E0BB27ED938A95E9F7BA
:1000A80080E094E0A0E6ED930197E9F7E0E8F0E05E
:1000B80085919591009761F0A591B591059015905E
:1000C800BF01F00105900D920197E1F7FB01F0CF18
:1000D800EFE5EDBFE4E0EEBFC0E6D1E00C94D1005F
:1000E8000A921A92FA926A937A938A939A93AA93A3
:1000F800BA93EA93FA93EFB7EA936497EAE0F0E0E9
:100108004E165F06D4F144245524F30131963F017D
:10011800ECE3F0E06E167F06B4F066247724F40171
:1001280031964F01ECE3F0E08E169F0664F08824C8
:100138009924F50131965F01E8E1F0E0AE16BF06BB
:1001480014F0AA24BB24FE01FA93EA93EEE6F0E049
:10015800FA93EA93F5010E945403F4010E945403B0
:10016800F3010E9454038CE00E9407036096E0E0CC
:10017800EA93A0E065D0DE0193D06496E991EFBFE1
:10018800F991E991B991A991999189917991699197
:10019800F9901990099018951895E0E0EABBEBBB27
:1001A800E7BBE8BBE4BBE5BBE1BBE2BBEDE0E3BF1B
:1001B800E0E0E2BFE0E6ECBFE0E0EFBDEEBDEDBDA4
:1001C800ECBDE7BDE6BDEBBDEABDE9BDE8BDE2BDFE
:1001D800EFE0E5BDE0E0E4BDE0E6E3BDE2E8E9BF6D
:1001E800E0E0E5BFE4BFEAB9E0E8E8B9E0E0E0BF95
:1001F800E6B9EDB9E6BFA0E164D07894FFCFFFCFB0
:10020800AA93EBB3EF70AE2FE881E07FEA2BEBBB4C
:1002180082E08A95F1F7DA9A82E08A95F1F7DA981E
:1002280082E08A95F1F779C0AA93A881E9DFE8818D
:10023800E295E883A881E4DF81E18A95F1F76DC052
:10024800AA93E881F0E0E05AFE4FE081A981AE0F61
:10025800EBDFD980C88022960895A2E00E94590356
:10026800ACE0E2DFA1E00E945903E0E0CE2EDE2EF2
:100278000895AA93A881AA3021F0E0916401DE16BE
:1002880048F0E0E0EA93C394AC2DDADFA881AA3005
:1002980009F443C0D394D89AA881C6DFD8983DC042
:1002A800BA93AA931A93A981BA81ED91A983BA83C3
:1002B8001E2FE03019F0A12FDCDFF5CF188123962F
:1002C8000895AA93EAB3E06FEABBD29AD09AD19A7A
:1002D800DA98D898D998E881E0936401E058E093D7
:1002E8006201E881E054E0936301A4E1B0E00E9478
:1002F80092030E945F030E945F030E945F03A0E2D3
:100308007FDF81E28A95F1F7A8E28EDFA4E08CDF37
:10031800A5E88ADFA6E088DFA0DF21960895BA93D2
:10032800AA931A930A93AA81BB8112960E94A903E1
:10033800309759F1AA81BB8114960E94A9038F01B5
:10034800309761F00230E0E01E0798F0F80131972D
:100358008F01AA81BB811496ED93FC93AA81BB817E
:100368001296ED91FD913196FE93EE933197AC8103
:10037800A083AA81BB810E94A903FF232AF0ED91E3
:10038800FD913196FE93EE9306C0AA81BB81EFEFF3
:10039800FFEFED93FC931981088125960895BA9390
:1003A800AA9326970E94B60310E0AC85BD85E0E0CD
:1003B800F0E0ED93FC93EA89FB893196EA8BFB8B9D
:1003C8003197E4912E2FE03009F415C1E12FE03088
:1003D80039F4253211F411E002C00E9466030AC103
:1003E800E130A9F4253219F40E94660302C112E033
:1003F80040E000E02D3211F401E0FCC02B3211F492
:100408004BE2F8C0203211F440E2F4C002C0E230FE
:1004180039F450E013E0203311F40068EBC003C056
:10042800E33009F0E7C0203310F02A3308F007C0A2
:10043800AAE05A9F502DE22FE0535E0FDBC0E22F57
:10044800E33649F40E946D03E889F989A481AA93E7
:100458000E947303CEC0E33741F40E946D030E94EB
:1004680079030E943B031E2F0AC0E03761F40E9403
:100478006D030E9479030E9447031E2F08600260E3
:100488000F7730E034C0E43611F0E93611F4046037
:1004980002C0E53731F4E4E5F0E0EE83FF8315E0D0
:1004A8000CC0E83511F4086003C0E83709F0A1C0B2
:1004B800EEE5F0E0EE83FF8314E002FF14C00E9433
:1004C8006D030E948303AB85AA233AF4EA85FB8572
:1004D8000E94A003EA87FB874DE2403011F01F5FBE
:1004E80001C00B7F04C00E946D030E94830300FDBE
:1004F80011C0151778F407FF08C002FF04C00B7F6E
:10050800242F115001C020E301C020E20E9466039D
:100518005150EFCF312F01FF17C03030A1F003FF4A
:1005280006C0EE81FF812591EE83FF8305C0AE8171
:10053800BF812D91AE83BF830E946603503009F0BE
:1005480051503150EACF4BC020E3EE81FF810E9429
:10055800AD03E887F987EE81FF813296EE83FF834A
:10056800E885F985AA85BB85AE17BF0750F02F5FD0
:10057800A885B985EA85FB85EA1BFB0BEA87FB871B
:10058800EFCF2A3328F003FF02C0295F01C0295D9D
:1005980004FD1AC0213320F4A885B985119709F400
:1005A80009C0531710F000FF01C013C020E207FF75
:1005B8000BC020E3006102FF07C00B7F4A930E9433
:1005C8007303503009F051500E946603503009F00F
:1005D80051503150A885B985129708F0B5CF00FF62
:1005E80008C0503031F05150E0E2EA930E947303A2
:1005F800F8CF10E0E0CEAC85BD850E94A9030E942B
:10060800BD0364960895FF92F82E26970E94B803BA
:100618000E948B03309719F4EFEFFFEF23C0DE0140
:1006280016960E949C038D010E948B03EE83FF8324
:10063800E0E0E887E987DE011A960E949C030E94A1
:10064800A903FA93EA931A930A93E3E9F1E0FA9378
:10065800EA93DE011A96A3DE9F01AE81BF81E0E036
:10066800EC93F9010E94BF032A96FF900895BA936C
:10067800AA93A991B991EE27FF276D91662311F0EE
:100688003196FBCF0895BA93AA93AA27BB27E9917D
:10069800F9910590002011F01196FBCFFD01089506
:1006A8000E94A4030E94B10308950E941801A3E0C8
:1006B800B0E00C949203A0E30E94040181E28A95C1
:1006C800F1F708952A93AD85BE85EF85F8890995D8
:1006D8000895E889F9893497E88BF98B0895AD85F1
:1006E800BE85EF85F88909950895A889B989149672
:1006F8000E94A903EE83FF83AE81BF810895A88974
:10070800B98914960E94A903EA87FB870895DE0138
:100718001C960E949C030E94A9030895109639F024
:100728008AEF90E00197F1F7A8951197C9F7089516
:100738000024AF0DB01D0895F195E195F04008959E
:100748006F2F660F660B762F0895ED91FC91119728
:1007580008950590F491E02D08957A936A93FA9399
:10076800EA9308955A934A933A932A931A930A93C9
:1007780008955D814C813B812A8119810881089502
:00000001FF
