:0E0000000C942F000C9400000C9400000C9443
:10000E0000000C9400000C9400000C9400000C9462
:10001E0000000C9400000C9400000C9400000C9452
:10002E0000000C9400000C9400000C9400000C9442
:10003E0000000C9400000C9400000C9400000C9432
:10004E0000000C94000080C002006001540000000B
:10005E00F894EE27ECBBF1E0FBBFEBBFE5BF8DE004
:10006E00A2E0BB27ED938A95E9F780E094E0A0E645
:10007E00ED930197E9F7E6E5F0E08591959100970C
:10008E0061F0A591B59105901590BF01F001059015
:10009E000D920197E1F7FB01F0CFEFE5EDBFE4E044
:1000AE00EEBFC0E6D1E00C945C00E0EFE2BBE1BB3A
:1000BE00A0E14FD0A1E639D0FDCFFFCFAA93E5B393
:1000CE00EF70AE2FE881E07FEA2BE5BB87E08A95E3
:1000DE00F1F7AA9A87E08A95F1F7AA9887E08A95B0
:1000EE00F1F75FC0AA93A881E9DFE881E295E88382
:1000FE00A881E4DF83E48A95F1F753C0AA93E881DF
:10010E00F0E0E05AFE4FE081A981AE0FEBDF59809F
:10011E00488022960895A2E046D0ACE0E3DFA1E04D
:10012E0042D0E0E04E2E5E2E0895AA93A881AA300A
:10013E0011F0571440F0E0E0EA934394A42DDEDF73
:10014E00A881AA3071F15394A89AA881CBDFA89800
:10015E0028C0AA93E4B3E06FE4BBA29AA09AA19A36
:10016E00AA98A898A9987880E881E058E09362014F
:10017E00E881E054E0936301A4E1B0E00E94E50061
:10018E0017D016D015D0A0E299DF85E88A95F1F741
:10019E00A8E2A8DFA4E0A6DFA5E8A4DFA6E0A2DF20
:1001AE00BADF219608959EDFA3E0B0E00C94E5003F
:1001BE00A0E384DF85E88A95F1F70895109639F06B
:1001CE0088EE93E00197F1F7A8951197C9F7089576
:00000001FF
